{
  "_format": "hh-sol-artifact-1",
  "contractName": "ReclamacionesSeguros",
  "sourceName": "contracts/ReclamacionesSeguros.sol",
  "abi": [
    {
      "inputs": [],
      "stateMutability": "nonpayable",
      "type": "constructor"
    },
    {
      "anonymous": false,
      "inputs": [
        {
          "indexed": true,
          "internalType": "uint256",
          "name": "siniestroId",
          "type": "uint256"
        },
        {
          "indexed": true,
          "internalType": "address",
          "name": "procesadoPor",
          "type": "address"
        },
        {
          "indexed": false,
          "internalType": "uint256",
          "name": "monto",
          "type": "uint256"
        },
        {
          "indexed": false,
          "internalType": "uint256",
          "name": "timestamp",
          "type": "uint256"
        }
      ],
      "name": "ReclamoAprobado",
      "type": "event"
    },
    {
      "anonymous": false,
      "inputs": [
        {
          "indexed": true,
          "internalType": "uint256",
          "name": "siniestroId",
          "type": "uint256"
        },
        {
          "indexed": true,
          "internalType": "address",
          "name": "solicitante",
          "type": "address"
        },
        {
          "indexed": false,
          "internalType": "string",
          "name": "descripcion",
          "type": "string"
        },
        {
          "indexed": false,
          "internalType": "uint256",
          "name": "monto",
          "type": "uint256"
        }
      ],
      "name": "ReclamoCreado",
      "type": "event"
    },
    {
      "anonymous": false,
      "inputs": [
        {
          "indexed": true,
          "internalType": "uint256",
          "name": "siniestroId",
          "type": "uint256"
        },
        {
          "indexed": true,
          "internalType": "address",
          "name": "beneficiario",
          "type": "address"
        },
        {
          "indexed": false,
          "internalType": "uint256",
          "name": "monto",
          "type": "uint256"
        },
        {
          "indexed": false,
          "internalType": "uint256",
          "name": "timestamp",
          "type": "uint256"
        }
      ],
      "name": "ReclamoPagado",
      "type": "event"
    },
    {
      "anonymous": false,
      "inputs": [
        {
          "indexed": true,
          "internalType": "uint256",
          "name": "siniestroId",
          "type": "uint256"
        },
        {
          "indexed": true,
          "internalType": "address",
          "name": "procesadoPor",
          "type": "address"
        },
        {
          "indexed": false,
          "internalType": "string",
          "name": "razon",
          "type": "string"
        },
        {
          "indexed": false,
          "internalType": "uint256",
          "name": "timestamp",
          "type": "uint256"
        }
      ],
      "name": "ReclamoRechazado",
      "type": "event"
    },
    {
      "anonymous": false,
      "inputs": [
        {
          "indexed": true,
          "internalType": "uint256",
          "name": "siniestroId",
          "type": "uint256"
        },
        {
          "indexed": true,
          "internalType": "address",
          "name": "validadoPor",
          "type": "address"
        },
        {
          "indexed": false,
          "internalType": "uint256",
          "name": "timestamp",
          "type": "uint256"
        }
      ],
      "name": "ReclamoValidado",
      "type": "event"
    },
    {
      "inputs": [
        {
          "internalType": "address",
          "name": "",
          "type": "address"
        }
      ],
      "name": "administradores",
      "outputs": [
        {
          "internalType": "bool",
          "name": "",
          "type": "bool"
        }
      ],
      "stateMutability": "view",
      "type": "function"
    },
    {
      "inputs": [
        {
          "internalType": "address",
          "name": "_admin",
          "type": "address"
        }
      ],
      "name": "agregarAdministrador",
      "outputs": [],
      "stateMutability": "nonpayable",
      "type": "function"
    },
    {
      "inputs": [
        {
          "internalType": "uint256",
          "name": "_siniestroId",
          "type": "uint256"
        },
        {
          "internalType": "string",
          "name": "_notas",
          "type": "string"
        }
      ],
      "name": "aprobarReclamo",
      "outputs": [],
      "stateMutability": "nonpayable",
      "type": "function"
    },
    {
      "inputs": [],
      "name": "obtenerBalance",
      "outputs": [
        {
          "internalType": "uint256",
          "name": "",
          "type": "uint256"
        }
      ],
      "stateMutability": "view",
      "type": "function"
    },
    {
      "inputs": [
        {
          "internalType": "uint256",
          "name": "_siniestroId",
          "type": "uint256"
        }
      ],
      "name": "obtenerReclamo",
      "outputs": [
        {
          "internalType": "uint256",
          "name": "siniestroId",
          "type": "uint256"
        },
        {
          "internalType": "address",
          "name": "solicitante",
          "type": "address"
        },
        {
          "internalType": "string",
          "name": "descripcion",
          "type": "string"
        },
        {
          "internalType": "uint256",
          "name": "monto",
          "type": "uint256"
        },
        {
          "internalType": "enum ReclamacionesSeguros.EstadoReclamo",
          "name": "estado",
          "type": "uint8"
        },
        {
          "internalType": "uint256",
          "name": "fechaCreacion",
          "type": "uint256"
        },
        {
          "internalType": "uint256",
          "name": "fechaActualizacion",
          "type": "uint256"
        },
        {
          "internalType": "address",
          "name": "validadoPor",
          "type": "address"
        },
        {
          "internalType": "address",
          "name": "procesadoPor",
          "type": "address"
        },
        {
          "internalType": "string",
          "name": "notasAdmin",
          "type": "string"
        }
      ],
      "stateMutability": "view",
      "type": "function"
    },
    {
      "inputs": [],
      "name": "obtenerTodosLosReclamos",
      "outputs": [
        {
          "internalType": "uint256[]",
          "name": "",
          "type": "uint256[]"
        }
      ],
      "stateMutability": "view",
      "type": "function"
    },
    {
      "inputs": [],
      "name": "obtenerTotalReclamos",
      "outputs": [
        {
          "internalType": "uint256",
          "name": "",
          "type": "uint256"
        }
      ],
      "stateMutability": "view",
      "type": "function"
    },
    {
      "inputs": [
        {
          "internalType": "uint256",
          "name": "_siniestroId",
          "type": "uint256"
        }
      ],
      "name": "pagarReclamoPublico",
      "outputs": [],
      "stateMutability": "payable",
      "type": "function"
    },
    {
      "inputs": [
        {
          "internalType": "uint256",
          "name": "_siniestroId",
          "type": "uint256"
        }
      ],
      "name": "procesarPago",
      "outputs": [],
      "stateMutability": "payable",
      "type": "function"
    },
    {
      "inputs": [],
      "name": "propietario",
      "outputs": [
        {
          "internalType": "address",
          "name": "",
          "type": "address"
        }
      ],
      "stateMutability": "view",
      "type": "function"
    },
    {
      "inputs": [
        {
          "internalType": "uint256",
          "name": "_siniestroId",
          "type": "uint256"
        },
        {
          "internalType": "string",
          "name": "_razon",
          "type": "string"
        }
      ],
      "name": "rechazarReclamo",
      "outputs": [],
      "stateMutability": "nonpayable",
      "type": "function"
    },
    {
      "inputs": [
        {
          "internalType": "uint256",
          "name": "",
          "type": "uint256"
        }
      ],
      "name": "reclamos",
      "outputs": [
        {
          "internalType": "uint256",
          "name": "siniestroId",
          "type": "uint256"
        },
        {
          "internalType": "address",
          "name": "solicitante",
          "type": "address"
        },
        {
          "internalType": "string",
          "name": "descripcion",
          "type": "string"
        },
        {
          "internalType": "uint256",
          "name": "monto",
          "type": "uint256"
        },
        {
          "internalType": "enum ReclamacionesSeguros.EstadoReclamo",
          "name": "estado",
          "type": "uint8"
        },
        {
          "internalType": "uint256",
          "name": "fechaCreacion",
          "type": "uint256"
        },
        {
          "internalType": "uint256",
          "name": "fechaActualizacion",
          "type": "uint256"
        },
        {
          "internalType": "address",
          "name": "validadoPor",
          "type": "address"
        },
        {
          "internalType": "address",
          "name": "procesadoPor",
          "type": "address"
        },
        {
          "internalType": "string",
          "name": "notasAdmin",
          "type": "string"
        }
      ],
      "stateMutability": "view",
      "type": "function"
    },
    {
      "inputs": [
        {
          "internalType": "uint256",
          "name": "_siniestroId",
          "type": "uint256"
        },
        {
          "internalType": "string",
          "name": "_descripcion",
          "type": "string"
        },
        {
          "internalType": "uint256",
          "name": "_monto",
          "type": "uint256"
        }
      ],
      "name": "registrarReclamo",
      "outputs": [],
      "stateMutability": "nonpayable",
      "type": "function"
    },
    {
      "inputs": [
        {
          "internalType": "address",
          "name": "_admin",
          "type": "address"
        }
      ],
      "name": "removerAdministrador",
      "outputs": [],
      "stateMutability": "nonpayable",
      "type": "function"
    },
    {
      "inputs": [],
      "name": "retirarFondos",
      "outputs": [],
      "stateMutability": "nonpayable",
      "type": "function"
    },
    {
      "inputs": [
        {
          "internalType": "uint256",
          "name": "",
          "type": "uint256"
        }
      ],
      "name": "todosLosReclamos",
      "outputs": [
        {
          "internalType": "uint256",
          "name": "",
          "type": "uint256"
        }
      ],
      "stateMutability": "view",
      "type": "function"
    },
    {
      "inputs": [
        {
          "internalType": "uint256",
          "name": "_siniestroId",
          "type": "uint256"
        }
      ],
      "name": "validarReclamo",
      "outputs": [],
      "stateMutability": "nonpayable",
      "type": "function"
    },
    {
      "stateMutability": "payable",
      "type": "receive"
    }
  ],
  "bytecode": "0x608060405234801561001057600080fd5b50600280546001600160a01b031916339081179091556000908152600360205260409020805460ff191660011790556118ca8061004e6000396000f3fe6080604052600436106101025760003560e01c806386784f6811610095578063a9d98a5b11610064578063a9d98a5b1461029d578063b182d9b3146102bd578063b56cbfcf146102df578063d449dc54146102f2578063dce53d551461033257600080fd5b806386784f68146102355780638af0188014610255578063a160b54d1461026a578063a34290501461027d57600080fd5b806342bc3774116100d157806342bc37741461019f57806344c72b81146101d557806365cf03d6146101f55780636f3682431461021557600080fd5b8063071c2ba71461010e57806322d9a1ee146101305780633285ba94146101525780633c4f81cd1461016757600080fd5b3661010957005b600080fd5b34801561011a57600080fd5b5061012e610129366004611359565b610352565b005b34801561013c57600080fd5b50475b6040519081526020015b60405180910390f35b34801561015e57600080fd5b5060015461013f565b34801561017357600080fd5b50600254610187906001600160a01b031681565b6040516001600160a01b039091168152602001610149565b3480156101ab57600080fd5b506101bf6101ba366004611389565b6103a6565b6040516101499a999897969594939291906113fe565b3480156101e157600080fd5b5061013f6101f0366004611389565b610527565b34801561020157600080fd5b5061012e61021036600461154d565b610548565b34801561022157600080fd5b5061012e610230366004611359565b610862565b34801561024157600080fd5b5061012e61025036600461159d565b6108b0565b34801561026157600080fd5b5061012e610a57565b61012e610278366004611389565b610abd565b34801561028957600080fd5b5061012e61029836600461159d565b610ce8565b3480156102a957600080fd5b5061012e6102b8366004611389565b610e66565b3480156102c957600080fd5b506102d2610fae565b60405161014991906115e4565b61012e6102ed366004611389565b611006565b3480156102fe57600080fd5b5061032261030d366004611359565b60036020526000908152604090205460ff1681565b6040519015158152602001610149565b34801561033e57600080fd5b506101bf61034d366004611389565b61117f565b6002546001600160a01b031633146103855760405162461bcd60e51b815260040161037c90611628565b60405180910390fd5b6001600160a01b03166000908152600360205260409020805460ff19169055565b60006020819052908152604090208054600182015460028301805492936001600160a01b03909216926103d890611677565b80601f016020809104026020016040519081016040528092919081815260200182805461040490611677565b80156104515780601f1061042657610100808354040283529160200191610451565b820191906000526020600020905b81548152906001019060200180831161043457829003601f168201915b50505060038401546004850154600586015460068701546007880154600889015460098a018054999a969960ff909616985093965091946001600160a01b0391821694929091169290916104a490611677565b80601f01602080910402602001604051908101604052809291908181526020018280546104d090611677565b801561051d5780601f106104f25761010080835404028352916020019161051d565b820191906000526020600020905b81548152906001019060200180831161050057829003601f168201915b505050505090508a565b6001818154811061053757600080fd5b600091825260209091200154905081565b600083116105a35760405162461bcd60e51b815260206004820152602260248201527f49442064652073696e69657374726f206465626520736572206d61796f722061604482015261020360f41b606482015260840161037c565b60008251116106005760405162461bcd60e51b815260206004820152602360248201527f4c61206465736372697063696f6e206e6f20707565646520657374617220766160448201526263696160e81b606482015260840161037c565b600081116106505760405162461bcd60e51b815260206004820152601b60248201527f456c206d6f6e746f206465626520736572206d61796f72206120300000000000604482015260640161037c565b600083815260208190526040902054156106ac5760405162461bcd60e51b815260206004820181905260248201527f59612065786973746520756e207265636c616d6f20636f6e2065737465204944604482015260640161037c565b6040805161014081018252848152336020808301918252828401868152606084018690526000608085018190524260a0860181905260c086015260e08501819052610100850181905285518084018752818152610120860152888152918290529390208251815590516001820180546001600160a01b0319166001600160a01b039092169190911790559151909190600282019061074a9082611700565b506060820151816003015560808201518160040160006101000a81548160ff0219169083600481111561077f5761077f6113e8565b021790555060a0820151600582015560c0820151600682015560e08201516007820180546001600160a01b039283166001600160a01b03199182161790915561010084015160088401805491909316911617905561012082015160098201906107e89082611700565b50506001805480820182556000919091527fb10e2d527612073b26eecdfd717e6a320cf44b4afac2b0732d9fcbe2b7fa0cf60184905550604051339084907f0a29e131af93e43131cc8b474cad36f2d161fd85f165d6c1347a3f1992da393d9061085590869086906117c0565b60405180910390a3505050565b6002546001600160a01b0316331461088c5760405162461bcd60e51b815260040161037c90611628565b6001600160a01b03166000908152600360205260409020805460ff19166001179055565b3360009081526003602052604090205460ff16806108d857506002546001600160a01b031633145b6108f45760405162461bcd60e51b815260040161037c906117e2565b6000828152602081905260408120548391036109225760405162461bcd60e51b815260040161037c9061183f565b60008381526020819052604081209060048083015460ff169081111561094a5761094a6113e8565b148061096e5750600160048083015460ff169081111561096c5761096c6113e8565b145b6109d85760405162461bcd60e51b815260206004820152603560248201527f456c207265636c616d6f206e6f207075656465207365722072656368617a61646044820152741bc8195b881cdd48195cdd18591bc81858dd1d585b605a1b606482015260840161037c565b60048101805460ff19166003179055600881018054336001600160a01b031990911617905560098101610a0b8482611700565b504260068201819055604051339186917f47ad908819201708725b91546699c03900489ae672e1502c1063d9ef56f1418b91610a49918891906117c0565b60405180910390a350505050565b6002546001600160a01b03163314610a815760405162461bcd60e51b815260040161037c90611628565b6002546040516001600160a01b03909116904780156108fc02916000818181858888f19350505050158015610aba573d6000803e3d6000fd5b50565b3360009081526003602052604090205460ff1680610ae557506002546001600160a01b031633145b610b015760405162461bcd60e51b815260040161037c906117e2565b600081815260208190526040812054829103610b2f5760405162461bcd60e51b815260040161037c9061183f565b6000828152602081905260409020600260048083015460ff1690811115610b5857610b586113e8565b14610ba55760405162461bcd60e51b815260206004820152601e60248201527f456c207265636c616d6f2064656265206573746172206170726f6261646f0000604482015260640161037c565b8060030154341015610bf95760405162461bcd60e51b815260206004820152601f60248201527f4d6f6e746f20696e737566696369656e7465207061726120656c207061676f00604482015260640161037c565b6004818101805460ff19169091179055426006820155600181015460038201546040516001600160a01b03909216916108fc82150291906000818181858888f19350505050158015610c4f573d6000803e3d6000fd5b508060030154341115610c9b57600381015433906108fc90610c71903461186d565b6040518115909202916000818181858888f19350505050158015610c99573d6000803e3d6000fd5b505b60018101546003820154604080519182524260208301526001600160a01b039092169185917faadd0648805dec77527ca8a48c27d27c0374ee4399bcfea87fa67c7253c749849101610855565b3360009081526003602052604090205460ff1680610d1057506002546001600160a01b031633145b610d2c5760405162461bcd60e51b815260040161037c906117e2565b600082815260208190526040812054839103610d5a5760405162461bcd60e51b815260040161037c9061183f565b6000838152602081905260409020600160048083015460ff1690811115610d8357610d836113e8565b14610de95760405162461bcd60e51b815260206004820152603060248201527f456c207265636c616d6f20646562652065737461722076616c696461646f207060448201526f61726120736572206170726f6261646f60801b606482015260840161037c565b60048101805460ff19166002179055600881018054336001600160a01b031990911617905560098101610e1c8482611700565b5042600682018190556003820154604051339287927f1454b9d007b27f2e832acf22fd6533a8101698d835ec63d34513391e4831f5f892610a499290918252602082015260400190565b3360009081526003602052604090205460ff1680610e8e57506002546001600160a01b031633145b610eaa5760405162461bcd60e51b815260040161037c906117e2565b600081815260208190526040812054829103610ed85760405162461bcd60e51b815260040161037c9061183f565b60008281526020819052604081209060048083015460ff1690811115610f0057610f006113e8565b14610f4d5760405162461bcd60e51b815260206004820152601b60248201527f456c207265636c616d6f207961206675652070726f63657361646f0000000000604482015260640161037c565b60048101805460ff19166001179055600781018054336001600160a01b03199091168117909155426006830181905560405190815284907f88fdfb5b6380c34d325b7dea541a9acb703a745c0eb298a88c53e01eb57826e190602001610855565b60606001805480602002602001604051908101604052809291908181526020018280548015610ffc57602002820191906000526020600020905b815481526020019060010190808311610fe8575b5050505050905090565b6000818152602081905260408120548291036110345760405162461bcd60e51b815260040161037c9061183f565b6000828152602081905260409020600260048083015460ff169081111561105d5761105d6113e8565b146110c15760405162461bcd60e51b815260206004820152602e60248201527f456c207265636c616d6f2064656265206573746172206170726f6261646f207060448201526d617261207365722070616761646f60901b606482015260840161037c565b80600301543410156111155760405162461bcd60e51b815260206004820181905260248201527f456c206d6f6e746f20656e766961646f20657320696e737566696369656e7465604482015260640161037c565b6004818101805460ff191690911790556008810180546001600160a01b03191633179055426006820155600181015460038201546040516001600160a01b039092169181156108fc0291906000818181858888f19350505050158015610c4f573d6000803e3d6000fd5b600080606060008060008060008060608a600080828152602001908152602001600020600001546000036111c55760405162461bcd60e51b815260040161037c9061183f565b60008c8152602081905260409020805460018201546003830154600484015460058501546006860154600787015460088801546002890180546001600160a01b039889169891979660ff169594938216929091169060098b0190889061122a90611677565b80601f016020809104026020016040519081016040528092919081815260200182805461125690611677565b80156112a35780601f10611278576101008083540402835291602001916112a3565b820191906000526020600020905b81548152906001019060200180831161128657829003601f168201915b505050505097508080546112b690611677565b80601f01602080910402602001604051908101604052809291908181526020018280546112e290611677565b801561132f5780601f106113045761010080835404028352916020019161132f565b820191906000526020600020905b81548152906001019060200180831161131257829003601f168201915b505050505090509b509b509b509b509b509b509b509b509b509b5050509193959799509193959799565b60006020828403121561136b57600080fd5b81356001600160a01b038116811461138257600080fd5b9392505050565b60006020828403121561139b57600080fd5b5035919050565b6000815180845260005b818110156113c8576020818501810151868301820152016113ac565b506000602082860101526020601f19601f83011685010191505092915050565b634e487b7160e01b600052602160045260246000fd5b8a81526001600160a01b038a166020820152610140604082018190526000906114298382018c6113a2565b90508960608401526005891061144f57634e487b7160e01b600052602160045260246000fd5b8860808401528760a08401528660c084015261147660e08401876001600160a01b03169052565b6001600160a01b03851661010084015282810361012084015261149981856113a2565b9d9c50505050505050505050505050565b634e487b7160e01b600052604160045260246000fd5b600082601f8301126114d157600080fd5b813567ffffffffffffffff808211156114ec576114ec6114aa565b604051601f8301601f19908116603f01168101908282118183101715611514576115146114aa565b8160405283815286602085880101111561152d57600080fd5b836020870160208301376000602085830101528094505050505092915050565b60008060006060848603121561156257600080fd5b83359250602084013567ffffffffffffffff81111561158057600080fd5b61158c868287016114c0565b925050604084013590509250925092565b600080604083850312156115b057600080fd5b82359150602083013567ffffffffffffffff8111156115ce57600080fd5b6115da858286016114c0565b9150509250929050565b6020808252825182820181905260009190848201906040850190845b8181101561161c57835183529284019291840191600101611600565b50909695505050505050565b6020808252602f908201527f536f6c6f20656c2070726f706965746172696f20707565646520656a6563757460408201526e30b91032b9ba3090333ab731b4b7b760891b606082015260800190565b600181811c9082168061168b57607f821691505b6020821081036116ab57634e487b7160e01b600052602260045260246000fd5b50919050565b601f8211156116fb57600081815260208120601f850160051c810160208610156116d85750805b601f850160051c820191505b818110156116f7578281556001016116e4565b5050505b505050565b815167ffffffffffffffff81111561171a5761171a6114aa565b61172e816117288454611677565b846116b1565b602080601f831160018114611763576000841561174b5750858301515b600019600386901b1c1916600185901b1785556116f7565b600085815260208120601f198616915b8281101561179257888601518255948401946001909101908401611773565b50858210156117b05787850151600019600388901b60f8161c191681555b5050505050600190811b01905550565b6040815260006117d360408301856113a2565b90508260208301529392505050565b6020808252603d908201527f536f6c6f2061646d696e6973747261646f726573206175746f72697a61646f7360408201527f2070756564656e20656a65637574617220657374612066756e63696f6e000000606082015260800190565b602080825260149082015273456c207265636c616d6f206e6f2065786973746560601b604082015260600190565b8181038181111561188e57634e487b7160e01b600052601160045260246000fd5b9291505056fea2646970667358221220276bb66730cca573a3a20e6d9dfb570f4a9202e4c9ec6d4f455dafe56b53d39b64736f6c63430008130033",
  "linkReferences": {},
  "deployedLinkReferences": {}
}